{
  "contractName": "DriverRegister",
  "abi": [
    {
      "constant": true,
      "inputs": [
        {
          "name": "",
          "type": "address"
        }
      ],
      "name": "driversIds",
      "outputs": [
        {
          "name": "",
          "type": "uint256"
        }
      ],
      "payable": false,
      "stateMutability": "view",
      "type": "function"
    },
    {
      "constant": true,
      "inputs": [
        {
          "name": "",
          "type": "uint256"
        }
      ],
      "name": "drivers",
      "outputs": [
        {
          "name": "name",
          "type": "string"
        },
        {
          "name": "phno",
          "type": "string"
        },
        {
          "name": "licenceno",
          "type": "string"
        },
        {
          "name": "driverAddress",
          "type": "address"
        },
        {
          "name": "createdAt",
          "type": "uint256"
        },
        {
          "name": "updatedAt",
          "type": "uint256"
        }
      ],
      "payable": false,
      "stateMutability": "view",
      "type": "function"
    },
    {
      "inputs": [],
      "payable": false,
      "stateMutability": "nonpayable",
      "type": "constructor"
    },
    {
      "anonymous": false,
      "inputs": [
        {
          "indexed": false,
          "name": "id",
          "type": "uint256"
        }
      ],
      "name": "newDriverRegistered",
      "type": "event"
    },
    {
      "anonymous": false,
      "inputs": [
        {
          "indexed": false,
          "name": "id",
          "type": "uint256"
        }
      ],
      "name": "driverUpdateEvent",
      "type": "event"
    },
    {
      "constant": false,
      "inputs": [
        {
          "name": "_driverName",
          "type": "string"
        },
        {
          "name": "_phno",
          "type": "string"
        },
        {
          "name": "_licenceno",
          "type": "string"
        }
      ],
      "name": "registerDriver",
      "outputs": [
        {
          "name": "",
          "type": "uint256"
        }
      ],
      "payable": false,
      "stateMutability": "nonpayable",
      "type": "function"
    },
    {
      "constant": false,
      "inputs": [
        {
          "name": "_newDriverName",
          "type": "string"
        },
        {
          "name": "_newPhno",
          "type": "string"
        },
        {
          "name": "_newLicenceno",
          "type": "string"
        }
      ],
      "name": "updateDriver",
      "outputs": [
        {
          "name": "",
          "type": "uint256"
        }
      ],
      "payable": false,
      "stateMutability": "nonpayable",
      "type": "function"
    },
    {
      "constant": true,
      "inputs": [
        {
          "name": "_id",
          "type": "uint256"
        }
      ],
      "name": "getDriverById",
      "outputs": [
        {
          "name": "",
          "type": "uint256"
        },
        {
          "name": "",
          "type": "string"
        },
        {
          "name": "",
          "type": "string"
        },
        {
          "name": "",
          "type": "string"
        },
        {
          "name": "",
          "type": "address"
        },
        {
          "name": "",
          "type": "uint256"
        },
        {
          "name": "",
          "type": "uint256"
        }
      ],
      "payable": false,
      "stateMutability": "view",
      "type": "function"
    },
    {
      "constant": true,
      "inputs": [],
      "name": "getOwnProfile",
      "outputs": [
        {
          "name": "",
          "type": "uint256"
        },
        {
          "name": "",
          "type": "string"
        },
        {
          "name": "",
          "type": "string"
        },
        {
          "name": "",
          "type": "string"
        },
        {
          "name": "",
          "type": "address"
        },
        {
          "name": "",
          "type": "uint256"
        },
        {
          "name": "",
          "type": "uint256"
        }
      ],
      "payable": false,
      "stateMutability": "view",
      "type": "function"
    },
    {
      "constant": true,
      "inputs": [],
      "name": "isRegistered",
      "outputs": [
        {
          "name": "",
          "type": "bool"
        }
      ],
      "payable": false,
      "stateMutability": "view",
      "type": "function"
    },
    {
      "constant": true,
      "inputs": [],
      "name": "totalDrivers",
      "outputs": [
        {
          "name": "",
          "type": "uint256"
        }
      ],
      "payable": false,
      "stateMutability": "view",
      "type": "function"
    }
  ],
  "bytecode": "0x60806040523480156200001157600080fd5b506200005460006040518060200160405280600081525060405180602001604052806000815250604051806020016040528060008152506200028960201b60201c565b506200010e653333333333336040518060400160405280600981526020017f53697461204465766900000000000000000000000000000000000000000000008152506040518060400160405280600381526020017f31313100000000000000000000000000000000000000000000000000000000008152506040518060400160405280600681526020017f444c3130303100000000000000000000000000000000000000000000000000008152506200028960201b60201c565b50620001c8651111111111116040518060400160405280600c81526020017f42656761756d2052617a696100000000000000000000000000000000000000008152506040518060400160405280600381526020017f32323200000000000000000000000000000000000000000000000000000000008152506040518060400160405280600681526020017f444c3039383700000000000000000000000000000000000000000000000000008152506200028960201b60201c565b5062000282652222222222226040518060400160405280600a81526020017f4d61727920536d697468000000000000000000000000000000000000000000008152506040518060400160405280600381526020017f33333300000000000000000000000000000000000000000000000000000000008152506040518060400160405280600681526020017f444c3837353500000000000000000000000000000000000000000000000000008152506200028960201b60201c565b506200065a565b6000806000808773ffffffffffffffffffffffffffffffffffffffff1673ffffffffffffffffffffffffffffffffffffffff16815260200190815260200160002054905060008114620002db57600080fd5b6001805490506000808873ffffffffffffffffffffffffffffffffffffffff1673ffffffffffffffffffffffffffffffffffffffff168152602001908152602001600020819055506000600180548091906001016200033b91906200049b565b90506040518060c001604052808781526020018681526020018581526020018873ffffffffffffffffffffffffffffffffffffffff16815260200142815260200142815250600182815481106200038e57fe5b90600052602060002090600602016000820151816000019080519060200190620003ba929190620004d0565b506020820151816001019080519060200190620003d9929190620004d0565b506040820151816002019080519060200190620003f8929190620004d0565b5060608201518160030160006101000a81548173ffffffffffffffffffffffffffffffffffffffff021916908373ffffffffffffffffffffffffffffffffffffffff1602179055506080820151816004015560a082015181600501559050507f7c773302596438b6230329b4fcf63a20f3f7d6455c923e2acb08e8defd601e2d816040518082815260200191505060405180910390a18092505050949350505050565b815481835581811115620004cb57600602816006028360005260206000209182019101620004ca919062000557565b5b505050565b828054600181600116156101000203166002900490600052602060002090601f016020900481019282601f106200051357805160ff191683800117855562000544565b8280016001018555821562000544579182015b828111156200054357825182559160200191906001019062000526565b5b509050620005539190620005e6565b5090565b620005e391905b80821115620005df57600080820160006200057a91906200060e565b6001820160006200058c91906200060e565b6002820160006200059e91906200060e565b6003820160006101000a81549073ffffffffffffffffffffffffffffffffffffffff021916905560048201600090556005820160009055506006016200055e565b5090565b90565b6200060b91905b8082111562000607576000816000905550600101620005ed565b5090565b90565b50805460018160011615610100020316600290046000825580601f1062000636575062000657565b601f016020900490600052602060002090810190620006569190620005e6565b5b50565b61161c806200066a6000396000f3fe608060405234801561001057600080fd5b50600436106100885760003560e01c8063f79e54501161005b578063f79e545014610322578063fb487a6a146104e2578063fb49c039146106df578063fd1b5158146108a657610088565b8063223668441461008d5780638aefd245146100af5780638f7da266146102ac57806399fa753b14610304575b600080fd5b610095610a49565b604051808215151515815260200191505060405180910390f35b610296600480360360608110156100c557600080fd5b81019080803590602001906401000000008111156100e257600080fd5b8201836020820111156100f457600080fd5b8035906020019184600183028401116401000000008311171561011657600080fd5b91908080601f016020809104026020016040519081016040528093929190818152602001838380828437600081840152601f19601f8201169050808301925050505050505091929192908035906020019064010000000081111561017957600080fd5b82018360208201111561018b57600080fd5b803590602001918460018302840111640100000000831117156101ad57600080fd5b91908080601f016020809104026020016040519081016040528093929190818152602001838380828437600081840152601f19601f8201169050808301925050505050505091929192908035906020019064010000000081111561021057600080fd5b82018360208201111561022257600080fd5b8035906020019184600183028401116401000000008311171561024457600080fd5b91908080601f016020809104026020016040519081016040528093929190818152602001838380828437600081840152601f19601f820116905080830192505050505050509192919290505050610a91565b6040518082815260200191505060405180910390f35b6102ee600480360360208110156102c257600080fd5b81019080803573ffffffffffffffffffffffffffffffffffffffff169060200190929190505050610aa8565b6040518082815260200191505060405180910390f35b61030c610ac0565b6040518082815260200191505060405180910390f35b61034e6004803603602081101561033857600080fd5b8101908080359060200190929190505050610acf565b604051808060200180602001806020018773ffffffffffffffffffffffffffffffffffffffff1673ffffffffffffffffffffffffffffffffffffffff16815260200186815260200185815260200184810384528a818151815260200191508051906020019080838360005b838110156103d45780820151818401526020810190506103b9565b50505050905090810190601f1680156104015780820380516001836020036101000a031916815260200191505b50848103835289818151815260200191508051906020019080838360005b8381101561043a57808201518184015260208101905061041f565b50505050905090810190601f1680156104675780820380516001836020036101000a031916815260200191505b50848103825288818151815260200191508051906020019080838360005b838110156104a0578082015181840152602081019050610485565b50505050905090810190601f1680156104cd5780820380516001836020036101000a031916815260200191505b50995050505050505050505060405180910390f35b6106c9600480360360608110156104f857600080fd5b810190808035906020019064010000000081111561051557600080fd5b82018360208201111561052757600080fd5b8035906020019184600183028401116401000000008311171561054957600080fd5b91908080601f016020809104026020016040519081016040528093929190818152602001838380828437600081840152601f19601f820116905080830192505050505050509192919290803590602001906401000000008111156105ac57600080fd5b8201836020820111156105be57600080fd5b803590602001918460018302840111640100000000831117156105e057600080fd5b91908080601f016020809104026020016040519081016040528093929190818152602001838380828437600081840152601f19601f8201169050808301925050505050505091929192908035906020019064010000000081111561064357600080fd5b82018360208201111561065557600080fd5b8035906020019184600183028401116401000000008311171561067757600080fd5b91908080601f016020809104026020016040519081016040528093929190818152602001838380828437600081840152601f19601f820116905080830192505050505050509192919290505050610d00565b6040518082815260200191505060405180910390f35b61070b600480360360208110156106f557600080fd5b8101908080359060200190929190505050610e0c565b604051808881526020018060200180602001806020018773ffffffffffffffffffffffffffffffffffffffff1673ffffffffffffffffffffffffffffffffffffffff16815260200186815260200185815260200184810384528a818151815260200191508051906020019080838360005b8381101561079757808201518184015260208101905061077c565b50505050905090810190601f1680156107c45780820380516001836020036101000a031916815260200191505b50848103835289818151815260200191508051906020019080838360005b838110156107fd5780820151818401526020810190506107e2565b50505050905090810190601f16801561082a5780820380516001836020036101000a031916815260200191505b50848103825288818151815260200191508051906020019080838360005b83811015610863578082015181840152602081019050610848565b50505050905090810190601f1680156108905780820380516001836020036101000a031916815260200191505b509a505050505050505050505060405180910390f35b6108ae6110f6565b604051808881526020018060200180602001806020018773ffffffffffffffffffffffffffffffffffffffff1673ffffffffffffffffffffffffffffffffffffffff16815260200186815260200185815260200184810384528a818151815260200191508051906020019080838360005b8381101561093a57808201518184015260208101905061091f565b50505050905090810190601f1680156109675780820380516001836020036101000a031916815260200191505b50848103835289818151815260200191508051906020019080838360005b838110156109a0578082015181840152602081019050610985565b50505050905090810190601f1680156109cd5780820380516001836020036101000a031916815260200191505b50848103825288818151815260200191508051906020019080838360005b83811015610a065780820151818401526020810190506109eb565b50505050905090810190601f168015610a335780820380516001836020036101000a031916815260200191505b509a505050505050505050505060405180910390f35b6000806000803373ffffffffffffffffffffffffffffffffffffffff1673ffffffffffffffffffffffffffffffffffffffff1681526020019081526020016000205411905090565b6000610a9f33858585611177565b90509392505050565b60006020528060005260406000206000915090505481565b60006001808054905003905090565b60018181548110610adc57fe5b9060005260206000209060060201600091509050806000018054600181600116156101000203166002900480601f016020809104026020016040519081016040528092919081815260200182805460018160011615610100020316600290048015610b885780601f10610b5d57610100808354040283529160200191610b88565b820191906000526020600020905b815481529060010190602001808311610b6b57829003601f168201915b505050505090806001018054600181600116156101000203166002900480601f016020809104026020016040519081016040528092919081815260200182805460018160011615610100020316600290048015610c265780601f10610bfb57610100808354040283529160200191610c26565b820191906000526020600020905b815481529060010190602001808311610c0957829003601f168201915b505050505090806002018054600181600116156101000203166002900480601f016020809104026020016040519081016040528092919081815260200182805460018160011615610100020316600290048015610cc45780601f10610c9957610100808354040283529160200191610cc4565b820191906000526020600020905b815481529060010190602001808311610ca757829003601f168201915b5050505050908060030160009054906101000a900473ffffffffffffffffffffffffffffffffffffffff16908060040154908060050154905086565b6000610d0a610a49565b610d1357600080fd5b60008060003373ffffffffffffffffffffffffffffffffffffffff1673ffffffffffffffffffffffffffffffffffffffff168152602001908152602001600020549050600060018281548110610d6557fe5b9060005260206000209060060201905085816000019080519060200190610d8d92919061137f565b5084816001019080519060200190610da692919061137f565b5083816002019080519060200190610dbf92919061137f565b504281600501819055507fdc15f3e3602b77c5ea7bc67d77e0bd1311a63452fe1251bfa42ad3336acc41c7826040518082815260200191505060405180910390a181925050509392505050565b60006060806060600080600080881180610e2b57506001805490508811155b610e3457600080fd5b610e3c6113ff565b60018981548110610e4957fe5b90600052602060002090600602016040518060c0016040529081600082018054600181600116156101000203166002900480601f016020809104026020016040519081016040528092919081815260200182805460018160011615610100020316600290048015610efb5780601f10610ed057610100808354040283529160200191610efb565b820191906000526020600020905b815481529060010190602001808311610ede57829003601f168201915b50505050508152602001600182018054600181600116156101000203166002900480601f016020809104026020016040519081016040528092919081815260200182805460018160011615610100020316600290048015610f9d5780601f10610f7257610100808354040283529160200191610f9d565b820191906000526020600020905b815481529060010190602001808311610f8057829003601f168201915b50505050508152602001600282018054600181600116156101000203166002900480601f01602080910402602001604051908101604052809291908181526020018280546001816001161561010002031660029004801561103f5780601f106110145761010080835404028352916020019161103f565b820191906000526020600020905b81548152906001019060200180831161102257829003601f168201915b505050505081526020016003820160009054906101000a900473ffffffffffffffffffffffffffffffffffffffff1673ffffffffffffffffffffffffffffffffffffffff1673ffffffffffffffffffffffffffffffffffffffff16815260200160048201548152602001600582015481525050905088816000015182602001518360400151846060015185608001518660a00151859550849450839350975097509750975097509750975050919395979092949650565b60006060806060600080600061110a610a49565b61111357600080fd5b60008060003373ffffffffffffffffffffffffffffffffffffffff1673ffffffffffffffffffffffffffffffffffffffff16815260200190815260200160002054905061115f81610e0c565b97509750975097509750975097505090919293949596565b6000806000808773ffffffffffffffffffffffffffffffffffffffff1673ffffffffffffffffffffffffffffffffffffffff168152602001908152602001600020549050600081146111c857600080fd5b6001805490506000808873ffffffffffffffffffffffffffffffffffffffff1673ffffffffffffffffffffffffffffffffffffffff16815260200190815260200160002081905550600060018054809190600101611226919061144b565b90506040518060c001604052808781526020018681526020018581526020018873ffffffffffffffffffffffffffffffffffffffff168152602001428152602001428152506001828154811061127857fe5b906000526020600020906006020160008201518160000190805190602001906112a292919061147d565b5060208201518160010190805190602001906112bf92919061147d565b5060408201518160020190805190602001906112dc92919061147d565b5060608201518160030160006101000a81548173ffffffffffffffffffffffffffffffffffffffff021916908373ffffffffffffffffffffffffffffffffffffffff1602179055506080820151816004015560a082015181600501559050507f7c773302596438b6230329b4fcf63a20f3f7d6455c923e2acb08e8defd601e2d816040518082815260200191505060405180910390a18092505050949350505050565b828054600181600116156101000203166002900490600052602060002090601f016020900481019282601f106113c057805160ff19168380011785556113ee565b828001600101855582156113ee579182015b828111156113ed5782518255916020019190600101906113d2565b5b5090506113fb91906114fd565b5090565b6040518060c00160405280606081526020016060815260200160608152602001600073ffffffffffffffffffffffffffffffffffffffff16815260200160008152602001600081525090565b815481835581811115611478576006028160060283600052602060002091820191016114779190611522565b5b505050565b828054600181600116156101000203166002900490600052602060002090601f016020900481019282601f106114be57805160ff19168380011785556114ec565b828001600101855582156114ec579182015b828111156114eb5782518255916020019190600101906114d0565b5b5090506114f991906114fd565b5090565b61151f91905b8082111561151b576000816000905550600101611503565b5090565b90565b6115a591905b808211156115a1576000808201600061154191906115a8565b60018201600061155191906115a8565b60028201600061156191906115a8565b6003820160006101000a81549073ffffffffffffffffffffffffffffffffffffffff02191690556004820160009055600582016000905550600601611528565b5090565b90565b50805460018160011615610100020316600290046000825580601f106115ce57506115ed565b601f0160209004906000526020600020908101906115ec91906114fd565b5b5056fea165627a7a72305820187cf264d33d6cb9656f832643c952121b757f852a1a9b74305bb67af25cc9370029",
  "source": "pragma solidity ^0.5.8;\n\ncontract DriverRegister{\n \n  //data structure for Driver's details\n    struct Driver{\n        string name;\n        string phno;\n        string licenceno;\n        address driverAddress;\n        uint createdAt;\n        uint updatedAt;\n    }\n\n//map driver's wallet address to driver id\nmapping (address => uint) public driversIds;\n\n//Array to hold Driver list and Driver's Details\nDriver[] public drivers;\n\n// event fired when a Driver is registered\n    event newDriverRegistered(uint id);\n\n// event fired when the Driver updates his Contact Number or LicenceNumber or Name\n    event driverUpdateEvent(uint id);\n\n// Modifier: check if the caller of the smart contract is registered\n    modifier checkSenderIsRegistered {\n    \trequire(isRegistered());\n    \t_;\n    }    \n\n/**\n     * Constructor function\n     */\n    constructor() public\n    {\n        // NOTE: the first user MUST be emtpy: if you are trying to access to an element\n        // of the usersIds mapping that does not exist (like usersIds[0x12345]) you will\n        // receive 0, that's why in the first position (with index 0) must be initialized\n        addDriver(address(0x0), \"\",\"\",\"\");\n\n        // Some dummy data\n        addDriver(address(0x333333333333), \"Sita Devi\",\"111\",\"DL1001\");\n        addDriver(address(0x111111111111), \"Begaum Razia\",\"222\",\"DL0987\");\n        addDriver(address(0x222222222222), \"Mary Smith\",\"333\",\"DL8755\");\n    }\n\n\n    /**\n     * Function to register a new user.\n     *\n     * @param _driverName \t\tThe displaying name of the Driver\n     * @param _phno             The Contact Number of the Driver\n     * @param _licenceno        The Licence Number of the Driver\n     */\n    function registerDriver(string memory _driverName, string memory _phno, string memory _licenceno) public\n    returns(uint)\n    {\n    \treturn addDriver(msg.sender, _driverName, _phno, _licenceno);\n    }\n\n\n    /**\n     * Add a new user. This function must be private because an user\n     * cannot insert another user on behalf of someone else.\n     *\n     * @param _wAddr\t\tAddress wallet of the Driver\n     * @param _driverName\t\tDisplaying name of the Driver\n     * @param _phno             Contcat Number of the Driver\n     * @param _licenceno        Licence Number of the Driver\n     */\n    function addDriver(address _wAddr, string memory  _driverName, string memory _phno, string memory _licenceno) private\n    returns(uint)\n    {\n        // checking if the driver is already registered\n        uint driverId = driversIds[_wAddr];\n        require (driverId == 0);\n\n        // associating the driver wallet address with the new ID\n        driversIds[_wAddr] = drivers.length;\n        uint newDriverId = drivers.length++;\n\n        // storing the new user details\n        drivers[newDriverId] = Driver({\n        \tname: _driverName,\n        \tphno: _phno,\n            licenceno: _licenceno,\n        \tdriverAddress: _wAddr,\n        \tcreatedAt: now,\n        \tupdatedAt: now\n        });\n\n        // emitting the event that a new driver has been registered\n        emit newDriverRegistered(newDriverId);\n\n        return newDriverId;\n    }\n\n\n    /**\n     * Update the user profile of the caller of this method.\n     * Note: the user can modify only his own profile.\n     *\n     * @param _newDriverName\tThe new driver's displaying name\n     * @param _newPhno \tThe new Contact Number \n     * @param _newLicenceno The new Licence Number\n     */\n    function updateDriver(string memory _newDriverName, string memory _newPhno, string memory _newLicenceno) checkSenderIsRegistered public\n    returns(uint)\n    {\n    \t// A driver can modify only his own profile.\n    \tuint driverId = driversIds[msg.sender];\n\n    \tDriver storage driver = drivers[driverId];\n\n    \tdriver.name = _newDriverName;\n    \tdriver.phno = _newPhno;\n        driver.licenceno = _newLicenceno;\n    \tdriver.updatedAt = now;\n\n    \temit driverUpdateEvent(driverId);\n\n    \treturn driverId;\n    }\n\n\n    /**\n     * Get the user's profile information.\n     *\n     * @param _id \tThe ID of the driver stored on the blockchain.\n     */\n    function getDriverById(uint _id) public view\n    returns(\n    \tuint,\n    \tstring memory,\n        string memory,\n        string memory,\n    \taddress,\n    \tuint,\n    \tuint\n    ) {\n    \t// checking if the ID is valid\n    \trequire( (_id > 0) || (_id <= drivers.length) );\n\n    \tDriver memory i = drivers[_id];\n\n    \treturn (\n    \t\t_id,\n    \t\ti.name,\n    \t\ti.phno,\n            i.licenceno,\n    \t\ti.driverAddress,\n    \t\ti.createdAt,\n    \t\ti.updatedAt\n    \t);\n    }\n\n\n    /**\n     * Return the profile information of the caller.\n     */\n    function getOwnProfile() checkSenderIsRegistered public view\n    returns(\n    \tuint,\n    \tstring memory,\n    \tstring memory,\n        string memory,\n    \taddress,\n    \tuint,\n    \tuint\n    ) {\n    \tuint id = driversIds[msg.sender];\n\n    \treturn getDriverById(id);\n    }\n\n\n    /**\n     * Check if the user that is calling the smart contract is registered.\n     */\n    function isRegistered() public view returns (bool)\n    {\n    \treturn (driversIds[msg.sender] > 0);\n    }\n\n\t\n    /**\n     * Return the number of total registered users.\n     */\n    function totalDrivers() public view returns (uint)\n    {\n        // NOTE: the total registered user is length-1 because the user with\n        // index 0 is empty check the contructor: addUser(address(0x0), \"\", \"\");\n        return drivers.length - 1;\n    }\n\n}    \n\n\n\n",
  "sourcePath": "/home/shalu/EthPrjOct08/contracts/DriverRegister.sol",
  "compiler": {
    "name": "solc",
    "version": "0.5.8+commit.23d335f2.Emscripten.clang"
  },
  "schemaVersion": "3.0.11",
  "updatedAt": "2019-10-08T16:43:11.346Z",
  "devdoc": {
    "methods": {
      "getDriverById(uint256)": {
        "params": {
          "_id": "The ID of the driver stored on the blockchain."
        }
      },
      "registerDriver(string,string,string)": {
        "params": {
          "_driverName": "The displaying name of the Driver",
          "_licenceno": "The Licence Number of the Driver",
          "_phno": "The Contact Number of the Driver"
        }
      },
      "updateDriver(string,string,string)": {
        "params": {
          "_newDriverName": "The new driver's displaying name",
          "_newLicenceno": "The new Licence Number",
          "_newPhno": "The new Contact Number "
        }
      }
    }
  },
  "userdoc": {
    "methods": {
      "constructor": "Constructor function",
      "getDriverById(uint256)": {
        "notice": "Get the user's profile information."
      },
      "getOwnProfile()": {
        "notice": "Return the profile information of the caller."
      },
      "isRegistered()": {
        "notice": "Check if the user that is calling the smart contract is registered."
      },
      "registerDriver(string,string,string)": {
        "notice": "Function to register a new user."
      },
      "totalDrivers()": {
        "notice": "Return the number of total registered users."
      },
      "updateDriver(string,string,string)": {
        "notice": "Update the user profile of the caller of this method. Note: the user can modify only his own profile."
      }
    }
  }
}